{
  "_format": "hh-sol-artifact-1",
  "contractName": "TokenStaking",
  "sourceName": "contracts/TokenStaking.sol",
  "abi": [
    {
      "anonymous": false,
      "inputs": [
        {
          "indexed": true,
          "internalType": "address",
          "name": "user",
          "type": "address"
        },
        {
          "indexed": false,
          "internalType": "uint256",
          "name": "amount",
          "type": "uint256"
        }
      ],
      "name": "ClaimReward",
      "type": "event"
    },
    {
      "anonymous": false,
      "inputs": [
        {
          "indexed": true,
          "internalType": "address",
          "name": "user",
          "type": "address"
        },
        {
          "indexed": false,
          "internalType": "uint256",
          "name": "amount",
          "type": "uint256"
        }
      ],
      "name": "EarlyUnStakeFee",
      "type": "event"
    },
    {
      "anonymous": false,
      "inputs": [
        {
          "indexed": false,
          "internalType": "uint8",
          "name": "version",
          "type": "uint8"
        }
      ],
      "name": "Initialized",
      "type": "event"
    },
    {
      "anonymous": false,
      "inputs": [
        {
          "indexed": true,
          "internalType": "address",
          "name": "previousOwner",
          "type": "address"
        },
        {
          "indexed": true,
          "internalType": "address",
          "name": "newOwner",
          "type": "address"
        }
      ],
      "name": "OwnershipTransferred",
      "type": "event"
    },
    {
      "anonymous": false,
      "inputs": [
        {
          "indexed": true,
          "internalType": "address",
          "name": "user",
          "type": "address"
        },
        {
          "indexed": false,
          "internalType": "uint256",
          "name": "amount",
          "type": "uint256"
        }
      ],
      "name": "Stake",
      "type": "event"
    },
    {
      "anonymous": false,
      "inputs": [
        {
          "indexed": true,
          "internalType": "address",
          "name": "user",
          "type": "address"
        },
        {
          "indexed": false,
          "internalType": "uint256",
          "name": "amount",
          "type": "uint256"
        }
      ],
      "name": "UnStake",
      "type": "event"
    },
    {
      "inputs": [],
      "name": "APY_RATE_CHANGE_THRESHOLD",
      "outputs": [
        {
          "internalType": "uint256",
          "name": "",
          "type": "uint256"
        }
      ],
      "stateMutability": "view",
      "type": "function"
    },
    {
      "inputs": [],
      "name": "PERCENTAGE_DENOMINATOR",
      "outputs": [
        {
          "internalType": "uint256",
          "name": "",
          "type": "uint256"
        }
      ],
      "stateMutability": "view",
      "type": "function"
    },
    {
      "inputs": [],
      "name": "claimReward",
      "outputs": [],
      "stateMutability": "nonpayable",
      "type": "function"
    },
    {
      "inputs": [],
      "name": "getApy",
      "outputs": [
        {
          "internalType": "uint256",
          "name": "",
          "type": "uint256"
        }
      ],
      "stateMutability": "view",
      "type": "function"
    },
    {
      "inputs": [],
      "name": "getEarlyUnstkeFeePercentage",
      "outputs": [
        {
          "internalType": "uint256",
          "name": "",
          "type": "uint256"
        }
      ],
      "stateMutability": "view",
      "type": "function"
    },
    {
      "inputs": [],
      "name": "getMaxStakingTokenLimit",
      "outputs": [
        {
          "internalType": "uint256",
          "name": "",
          "type": "uint256"
        }
      ],
      "stateMutability": "view",
      "type": "function"
    },
    {
      "inputs": [],
      "name": "getMinimumStakingAmount",
      "outputs": [
        {
          "internalType": "uint256",
          "name": "",
          "type": "uint256"
        }
      ],
      "stateMutability": "view",
      "type": "function"
    },
    {
      "inputs": [],
      "name": "getStakeDays",
      "outputs": [
        {
          "internalType": "uint256",
          "name": "",
          "type": "uint256"
        }
      ],
      "stateMutability": "view",
      "type": "function"
    },
    {
      "inputs": [],
      "name": "getStakeEndDate",
      "outputs": [
        {
          "internalType": "uint256",
          "name": "",
          "type": "uint256"
        }
      ],
      "stateMutability": "view",
      "type": "function"
    },
    {
      "inputs": [],
      "name": "getStakeStartDate",
      "outputs": [
        {
          "internalType": "uint256",
          "name": "",
          "type": "uint256"
        }
      ],
      "stateMutability": "view",
      "type": "function"
    },
    {
      "inputs": [],
      "name": "getStakingStatus",
      "outputs": [
        {
          "internalType": "bool",
          "name": "",
          "type": "bool"
        }
      ],
      "stateMutability": "view",
      "type": "function"
    },
    {
      "inputs": [],
      "name": "getTotalStakedToken",
      "outputs": [
        {
          "internalType": "uint256",
          "name": "",
          "type": "uint256"
        }
      ],
      "stateMutability": "view",
      "type": "function"
    },
    {
      "inputs": [],
      "name": "getTotalUsers",
      "outputs": [
        {
          "internalType": "uint256",
          "name": "",
          "type": "uint256"
        }
      ],
      "stateMutability": "view",
      "type": "function"
    },
    {
      "inputs": [
        {
          "internalType": "address",
          "name": "userAddress",
          "type": "address"
        }
      ],
      "name": "getUser",
      "outputs": [
        {
          "components": [
            {
              "internalType": "uint256",
              "name": "stakeAmount",
              "type": "uint256"
            },
            {
              "internalType": "uint256",
              "name": "rewardAmount",
              "type": "uint256"
            },
            {
              "internalType": "uint256",
              "name": "lastStakeTime",
              "type": "uint256"
            },
            {
              "internalType": "uint256",
              "name": "lastRewardCalculationTime",
              "type": "uint256"
            },
            {
              "internalType": "uint256",
              "name": "rewardClaimerSofar",
              "type": "uint256"
            }
          ],
          "internalType": "struct TokenStaking.User",
          "name": "",
          "type": "tuple"
        }
      ],
      "stateMutability": "view",
      "type": "function"
    },
    {
      "inputs": [],
      "name": "getUserEstimatedRewards",
      "outputs": [
        {
          "internalType": "uint256",
          "name": "",
          "type": "uint256"
        }
      ],
      "stateMutability": "view",
      "type": "function"
    },
    {
      "inputs": [],
      "name": "getWithdrawableAmount",
      "outputs": [
        {
          "internalType": "uint256",
          "name": "",
          "type": "uint256"
        }
      ],
      "stateMutability": "view",
      "type": "function"
    },
    {
      "inputs": [
        {
          "internalType": "address",
          "name": "owner_",
          "type": "address"
        },
        {
          "internalType": "address",
          "name": "tokenAddress_",
          "type": "address"
        },
        {
          "internalType": "uint256",
          "name": "apyrate_",
          "type": "uint256"
        },
        {
          "internalType": "uint256",
          "name": "minimumStakingAmount_",
          "type": "uint256"
        },
        {
          "internalType": "uint256",
          "name": "maxStakeTokenLimit_",
          "type": "uint256"
        },
        {
          "internalType": "uint256",
          "name": "stakeStartDate_",
          "type": "uint256"
        },
        {
          "internalType": "uint256",
          "name": "stakeEndDate_",
          "type": "uint256"
        },
        {
          "internalType": "uint256",
          "name": "stakeDays_",
          "type": "uint256"
        },
        {
          "internalType": "uint256",
          "name": "earlyUnstakeFeePercentage_",
          "type": "uint256"
        }
      ],
      "name": "initialize",
      "outputs": [],
      "stateMutability": "nonpayable",
      "type": "function"
    },
    {
      "inputs": [
        {
          "internalType": "address",
          "name": "_user",
          "type": "address"
        }
      ],
      "name": "isStakeHolder",
      "outputs": [
        {
          "internalType": "bool",
          "name": "",
          "type": "bool"
        }
      ],
      "stateMutability": "view",
      "type": "function"
    },
    {
      "inputs": [],
      "name": "owner",
      "outputs": [
        {
          "internalType": "address",
          "name": "",
          "type": "address"
        }
      ],
      "stateMutability": "view",
      "type": "function"
    },
    {
      "inputs": [],
      "name": "renonceOwnership",
      "outputs": [],
      "stateMutability": "nonpayable",
      "type": "function"
    },
    {
      "inputs": [
        {
          "internalType": "uint256",
          "name": "_amount",
          "type": "uint256"
        }
      ],
      "name": "stake",
      "outputs": [],
      "stateMutability": "nonpayable",
      "type": "function"
    },
    {
      "inputs": [
        {
          "internalType": "uint256",
          "name": "amount",
          "type": "uint256"
        },
        {
          "internalType": "address",
          "name": "user",
          "type": "address"
        }
      ],
      "name": "stakeForUser",
      "outputs": [],
      "stateMutability": "nonpayable",
      "type": "function"
    },
    {
      "inputs": [],
      "name": "toggleStakingStatus",
      "outputs": [],
      "stateMutability": "nonpayable",
      "type": "function"
    },
    {
      "inputs": [
        {
          "internalType": "address",
          "name": "newOwner",
          "type": "address"
        }
      ],
      "name": "transferOwnership",
      "outputs": [],
      "stateMutability": "nonpayable",
      "type": "function"
    },
    {
      "inputs": [
        {
          "internalType": "uint256",
          "name": "_amount",
          "type": "uint256"
        }
      ],
      "name": "unstake",
      "outputs": [],
      "stateMutability": "nonpayable",
      "type": "function"
    },
    {
      "inputs": [
        {
          "internalType": "uint256",
          "name": "newPercentage",
          "type": "uint256"
        }
      ],
      "name": "updateEarlyUnstakePercentage",
      "outputs": [],
      "stateMutability": "nonpayable",
      "type": "function"
    },
    {
      "inputs": [
        {
          "internalType": "uint256",
          "name": "newAmount",
          "type": "uint256"
        }
      ],
      "name": "updateMaxStakingAmount",
      "outputs": [],
      "stateMutability": "nonpayable",
      "type": "function"
    },
    {
      "inputs": [
        {
          "internalType": "uint256",
          "name": "newAmount",
          "type": "uint256"
        }
      ],
      "name": "updateMinStakingAmount",
      "outputs": [],
      "stateMutability": "nonpayable",
      "type": "function"
    },
    {
      "inputs": [
        {
          "internalType": "uint256",
          "name": "newdate",
          "type": "uint256"
        }
      ],
      "name": "updateStakingEndDate",
      "outputs": [],
      "stateMutability": "nonpayable",
      "type": "function"
    },
    {
      "inputs": [
        {
          "internalType": "uint256",
          "name": "amount",
          "type": "uint256"
        }
      ],
      "name": "withdraw",
      "outputs": [],
      "stateMutability": "nonpayable",
      "type": "function"
    }
  ],
  "bytecode": "0x608060405234801561001057600080fd5b5061001a3361001f565b61007a565b600080546001600160a01b038381166201000081810262010000600160b01b0319851617855560405193049190911692909183917f8be0079c531659141344cd1fd0a4f28419497f9722a3daafe3b4186f6b6457e091a35050565b611bb5806100896000396000f3fe608060405234801561001057600080fd5b50600436106101d95760003560e01c80638da5cb5b11610104578063b3cd4254116100a2578063cab9b8fb11610071578063cab9b8fb146103c5578063f0116b74146103d0578063f18cce76146103d8578063f2fde38b146103e057600080fd5b8063b3cd4254146103a4578063b88a802f146103ad578063bb8febc6146103b5578063c5d62b18146103bd57600080fd5b80639be572f6116100de5780639be572f61461036e578063a694fc3a14610376578063a6d456bd14610389578063a9b3185a1461039c57600080fd5b80638da5cb5b146103345780638f3112b01461035e57806390be10cc1461036657600080fd5b8063423eea071161017c5780636f77926b1161014b5780636f77926b146102b157806370607f5d14610306578063845738cb146103195780638585d1381461032c57600080fd5b8063423eea071461025e57806342a23945146102665780634d55b1781461026e578063635121591461027657600080fd5b80631fb922e0116101b85780631fb922e01461021d5780632e17de78146102255780632e1a7d4d146102385780633e0935721461024b57600080fd5b80628e3252146101de57806314e49a31146101f55780631bd067c51461020a575b600080fd5b6003545b6040519081526020015b60405180910390f35b61020861020336600461194f565b6103f3565b005b61020861021836600461194f565b610400565b600a546101e2565b61020861023336600461194f565b61040d565b61020861024636600461194f565b6108bc565b61020861025936600461194f565b610a52565b6005546101e2565b6001546101e2565b6101e2610a5f565b6102a1610284366004611984565b6001600160a01b03166000908152600b6020526040902054151590565b60405190151581526020016101ec565b6102c46102bf366004611984565b610a93565b6040516101ec9190600060a082019050825182526020830151602083015260408301516040830152606083015160608301526080830151608083015292915050565b6102086103143660046119a6565b610b1d565b6102086103273660046119d2565b610b6c565b6101e2600a81565b6000546201000090046001600160a01b03166040516001600160a01b0390911681526020016101ec565b610208610c8d565b6101e2610ca1565b6006546101e2565b61020861038436600461194f565b610d26565b61020861039736600461194f565b610d7d565b6008546101e2565b6101e261271081565b610208610d8a565b6002546101e2565b61020861100c565b60095460ff166102a1565b6004546101e2565b6007546101e2565b6102086103ee366004611984565b611028565b6103fb6110a4565b600255565b6104086110a4565b600155565b600054600160b01b900460ff16156104405760405162461bcd60e51b815260040161043790611a43565b60405180910390fd5b60008054600160b01b60ff60b01b199091161790556009546040516370a0823160e01b8152306004820152829182916101009091046001600160a01b0316906370a0823190602401602060405180830381865afa1580156104a5573d6000803e3d6000fd5b505050506040513d601f19601f820116820180604052508101906104c99190611a7a565b10156104e75760405162461bcd60e51b815260040161043790611a93565b3360008390036105495760405162461bcd60e51b815260206004820152602760248201527f546f6b656e5374616b696e673a20616d6f756e742073686f756c64206265206e6044820152666f6e2d7a65726f60c81b6064820152608401610437565b604051636351215960e01b81526001600160a01b03821660048201523090636351215990602401602060405180830381865afa15801561058d573d6000803e3d6000fd5b505050506040513d601f19601f820116820180604052508101906105b19190611ae2565b6105fd5760405162461bcd60e51b815260206004820152601f60248201527f546f6b656e5374616b696e673a206e6f742061207374616b65686f6c646572006044820152606401610437565b6001600160a01b0381166000908152600b60205260409020548311156106775760405162461bcd60e51b815260206004820152602960248201527f546f6b656e5374616b696e673a206e6f7420656e6f756768207374616b6520746044820152686f20756e7374616b6560b81b6064820152608401610437565b61068081611105565b6007546001600160a01b0382166000908152600b602052604081206002015490916106aa91611b1a565b421161071157612710600854856106c19190611b33565b6106cb9190611b4a565b9050816001600160a01b03167f547c747d3878b7637a9d040b5479a58c43382aac8e5aa9a30a053c1a0cffb4f28560405161070891815260200190565b60405180910390a25b600061071d8286611b6c565b6001600160a01b0384166000908152600b602052604081208054929350879290919061074a908490611b6c565b9250508190555084600560008282546107639190611b6c565b90915550506001600160a01b0383166000908152600b602052604081205490036107a05760016006600082825461079a9190611b6c565b90915550505b60095460405163a9059cbb60e01b8152336004820152602481018390526101009091046001600160a01b03169063a9059cbb906044016020604051808303816000875af11580156107f5573d6000803e3d6000fd5b505050506040513d601f19601f820116820180604052508101906108199190611ae2565b6108655760405162461bcd60e51b815260206004820152601d60248201527f546f6b656e5374616b696e673a2066616c696564207472616e736665720000006044820152606401610437565b826001600160a01b03167fb24546d975e2628748efc9aced80665e0fad66272033e5c0ea25fd3afac99795866040516108a091815260200190565b60405180910390a250506000805460ff60b01b19169055505050565b6108c46110a4565b600054600160b01b900460ff16156108ee5760405162461bcd60e51b815260040161043790611a43565b6000805460ff60b01b1916600160b01b1790556040805163242f843360e21b81529051829130916390be10cc916004808201926020929091908290030181865afa158015610940573d6000803e3d6000fd5b505050506040513d601f19601f820116820180604052508101906109649190611a7a565b10156109c85760405162461bcd60e51b815260206004820152602d60248201527f546f6b656e7374616b696e673a206e6f7420656e6f756768742077697468647260448201526c617761626c6520746f6b656e7360981b6064820152608401610437565b60095460405163a9059cbb60e01b8152336004820152602481018390526101009091046001600160a01b03169063a9059cbb906044016020604051808303816000875af1158015610a1d573d6000803e3d6000fd5b505050506040513d601f19601f82011682018060405250810190610a419190611ae2565b50506000805460ff60b01b19169055565b610a5a6110a4565b600455565b600080610a6b33611169565b50336000908152600b6020526040902060010154909150610a8d908290611b1a565b91505090565b610ac56040518060a0016040528060008152602001600081526020016000815260200160008152602001600081525090565b506001600160a01b03166000908152600b6020908152604091829020825160a0810184528154815260018201549281019290925260028101549282019290925260038201546060820152600490910154608082015290565b610b256110a4565b600054600160b01b900460ff1615610b4f5760405162461bcd60e51b815260040161043790611a43565b6000805460ff60b01b1916600160b01b179055610a41828261123b565b600054610100900460ff1615808015610b8c5750600054600160ff909116105b80610ba65750303b158015610ba6575060005460ff166001145b610c075760405162461bcd60e51b815260206004820152602c60248201527f496e697469616c697a61626c653a20636f6e747261637420697320726561647960448201526b081a5b9a5d1a585b1a5e995960a21b6064820152608401610437565b6000805460ff191660011790558015610c2a576000805461ff0019166101001790555b610c3b8a8a8a8a8a8a8a8a8a611688565b8015610c81576000805461ff0019169055604051600181527f7f26b83ff96e1f2b6a682f133852f6798a09c465da95921460cefb38474024989060200160405180910390a15b50505050505050505050565b610c956110a4565b610c9f60006118f4565b565b6005546009546040516370a0823160e01b81523060048201526000929161010090046001600160a01b0316906370a0823190602401602060405180830381865afa158015610cf3573d6000803e3d6000fd5b505050506040513d601f19601f82011682018060405250810190610d179190611a7a565b610d219190611b6c565b905090565b600054600160b01b900460ff1615610d505760405162461bcd60e51b815260040161043790611a43565b6000805460ff60b01b1916600160b01b179055610d6d813361123b565b506000805460ff60b01b19169055565b610d856110a4565b600855565b600054600160b01b900460ff1615610db45760405162461bcd60e51b815260040161043790611a43565b6000805460ff60b01b1916600160b01b178155338152600b6020526040908190206001015460095491516370a0823160e01b8152306004820152909182916101009091046001600160a01b0316906370a0823190602401602060405180830381865afa158015610e28573d6000803e3d6000fd5b505050506040513d601f19601f82011682018060405250810190610e4c9190611a7a565b1015610e6a5760405162461bcd60e51b815260040161043790611a93565b610e7333611105565b336000908152600b602052604090206001015480610ed35760405162461bcd60e51b815260206004820181905260248201527f546f6b656e5374616b696e673a206e6f2072657761726420746f20636c61696d6044820152606401610437565b60095460405163a9059cbb60e01b8152336004820152602481018390526101009091046001600160a01b03169063a9059cbb906044016020604051808303816000875af1158015610f28573d6000803e3d6000fd5b505050506040513d601f19601f82011682018060405250810190610f4c9190611ae2565b610f985760405162461bcd60e51b815260206004820181905260248201527f546f6b656e5374616b696e673a206661696c656420746f207472616e736665726044820152606401610437565b336000908152600b60205260408120600181018290556004018054839290610fc1908490611b1a565b909155505060405181815233907fba8de60c3403ec381d1d484652ea1980e3c3e56359195c92525bff4ce47ad98e9060200160405180910390a250506000805460ff60b01b19169055565b6110146110a4565b6009805460ff19811660ff90911615179055565b6110306110a4565b6001600160a01b0381166110985760405162461bcd60e51b815260206004820152602960248201527f4f776e61626c653a206e65774f776e6572206973206e6f7420746865207a65726044820152686f206164647265737360b81b6064820152608401610437565b6110a1816118f4565b50565b6000546001600160a01b0362010000909104163314610c9f5760405162461bcd60e51b815260206004820181905260248201527f4f776e61626c653a2063616c6c6572206973206e6f7420746865206f776e65726044820152606401610437565b60008061111183611169565b6001600160a01b0385166000908152600b6020526040812060010180549395509193508492611141908490611b1a565b90915550506001600160a01b039092166000908152600b602052604090206003019190915550565b6001600160a01b0381166000908152600b6020526040812060038101546007546002909201548392839291429161119f91611b1a565b8111156111d2576007546001600160a01b0387166000908152600b60205260409020600201546111cf9190611b1a565b90505b60006111de8383611b6c565b600a546001600160a01b0389166000908152600b60205260409020549192506127109161016d91906112109085611b33565b61121a9190611b33565b6112249190611b4a565b61122e9190611b4a565b9791965090945050505050565b60095460ff161561128e5760405162461bcd60e51b815260206004820152601f60248201527f546f6b656e5374616b696e673a207374616b696e6720697320706175736564006044820152606401610437565b600354429081116112ef5760405162461bcd60e51b815260206004820152602560248201527f546f6b656e5374616b696e673a207374616b696e67206e6f742073746172746560448201526419081e595d60da1b6064820152608401610437565b60045481106113405760405162461bcd60e51b815260206004820152601b60248201527f546f6b656e5374616b696e673a207374616b696e6720656e64656400000000006044820152606401610437565b600254836005546113519190611b1a565b11156113b55760405162461bcd60e51b815260206004820152602d60248201527f546f6b656e5374616b696e673a206d6178207374616b696e6720746f6b656e2060448201526c1b1a5b5a5d081c995858da1959609a1b6064820152608401610437565b600083116114195760405162461bcd60e51b815260206004820152602b60248201527f546f6b656e5374616b696e673a207374616b6520616d6f756e74206d7573742060448201526a6265206e6f6e2d7a65726f60a81b6064820152608401610437565b6001548310156114a05760405162461bcd60e51b815260206004820152604660248201527f546f6b656e5374616b696e673a207374616b6520616d6f756e74206d7573742060448201527f62652067726561746572207468616e206d696e696d756d20616d6f756e7420616064820152651b1b1bddd95960d21b608482015260a401610437565b6001600160a01b0382166000908152600b6020526040902054156114cc576114c782611105565b611503565b6001600160a01b0382166000908152600b6020526040812060030182905560068054600192906114fd908490611b1a565b90915550505b6001600160a01b0382166000908152600b60205260408120805485929061152b908490611b1a565b90915550506001600160a01b0382166000908152600b6020526040812060020182905560058054859290611560908490611b1a565b90915550506009546040516323b872dd60e01b8152336004820152306024820152604481018590526101009091046001600160a01b0316906323b872dd906064016020604051808303816000875af11580156115c0573d6000803e3d6000fd5b505050506040513d601f19601f820116820180604052508101906115e49190611ae2565b6116405760405162461bcd60e51b815260206004820152602760248201527f546f6b656e5374616b696e673a206661696c656420746f207472616e7366657260448201526620746f6b656e7360c81b6064820152608401610437565b816001600160a01b03167febedb8b3c678666e7f36970bc8f57abf6d8fa2e828c0da91ea5b75bf68ed101a8460405161167b91815260200190565b60405180910390a2505050565b600054610100900460ff166116f25760405162461bcd60e51b815260206004820152602a60248201527f496e697469616c697a61626c653a20636f6e747261637420696e206e6f7420696044820152691b9a5d1a585b1a5e995960b21b6064820152608401610437565b612710600a54111561175f5760405162461bcd60e51b815260206004820152603060248201527f546f6b656e5374616b696e673a2061707920726174652073686f756c6420626560448201526f0206c657373207468616e2031303030360841b6064820152608401610437565b600082116117c05760405162461bcd60e51b815260206004820152602860248201527f546f6b656e5374616b696e673a20746f6b656e2064617973206d7573206265206044820152676e6f6e2d7a65726f60c01b6064820152608401610437565b6001600160a01b03881661182e5760405162461bcd60e51b815260206004820152602f60248201527f546f6b656e5374616b696e673a20746f6b656e20616464726573732063616e6e60448201526e6f742062652030206164647265737360881b6064820152608401610437565b8284106118a35760405162461bcd60e51b815260206004820152603f60248201527f546f6b656e5374616b696e673a20746f6b656e2073746172742064617465206d60448201527f757374206265206c657373207468616e207374616b6520656e642064617465006064820152608401610437565b6118ac896118f4565b600980546001600160a01b0390991661010002610100600160a81b031990991698909817909755600a9590955560019390935560029190915560035560045560075560085550565b600080546001600160a01b038381166201000081810262010000600160b01b0319851617855560405193049190911692909183917f8be0079c531659141344cd1fd0a4f28419497f9722a3daafe3b4186f6b6457e091a35050565b60006020828403121561196157600080fd5b5035919050565b80356001600160a01b038116811461197f57600080fd5b919050565b60006020828403121561199657600080fd5b61199f82611968565b9392505050565b600080604083850312156119b957600080fd5b823591506119c960208401611968565b90509250929050565b60008060008060008060008060006101208a8c0312156119f157600080fd5b6119fa8a611968565b9850611a0860208b01611968565b989b989a505050506040870135966060810135966080820135965060a0820135955060c0820135945060e08201359350610100909101359150565b6020808252601f908201527f5265656e7472616e637947756172643a207265656e7472616e742063616c6c00604082015260600190565b600060208284031215611a8c57600080fd5b5051919050565b6020808252602f908201527f546f6b656e5374616b696e673a20496e73756666696369656e742066756e642060408201526e696e2074686520547265617375727960881b606082015260800190565b600060208284031215611af457600080fd5b8151801515811461199f57600080fd5b634e487b7160e01b600052601160045260246000fd5b80820180821115611b2d57611b2d611b04565b92915050565b8082028115828204841417611b2d57611b2d611b04565b600082611b6757634e487b7160e01b600052601260045260246000fd5b500490565b81810381811115611b2d57611b2d611b0456fea26469706673582212202e026be632f3cebdf7adaa6507984d1a573f94203d3cc834aecb74e2d21dd81764736f6c63430008180033",
  "linkReferences": {},
  "deployedLinkReferences": {}
}