{
  "_format": "hh-sol-artifact-1",
  "contractName": "Buchains",
  "sourceName": "contracts/Buchains.sol",
  "abi": [
    {
      "inputs": [],
      "stateMutability": "nonpayable",
      "type": "constructor"
    },
    {
      "anonymous": false,
      "inputs": [
        {
          "indexed": true,
          "internalType": "address",
          "name": "_owner",
          "type": "address"
        },
        {
          "indexed": true,
          "internalType": "address",
          "name": "_spender",
          "type": "address"
        },
        {
          "indexed": false,
          "internalType": "uint256",
          "name": "_value",
          "type": "uint256"
        }
      ],
      "name": "Approval",
      "type": "event"
    },
    {
      "anonymous": false,
      "inputs": [
        {
          "indexed": true,
          "internalType": "address",
          "name": "_from",
          "type": "address"
        },
        {
          "indexed": true,
          "internalType": "address",
          "name": "_to",
          "type": "address"
        },
        {
          "indexed": false,
          "internalType": "uint256",
          "name": "_value",
          "type": "uint256"
        }
      ],
      "name": "Transfer",
      "type": "event"
    },
    {
      "inputs": [],
      "name": "_userId",
      "outputs": [
        {
          "internalType": "uint256",
          "name": "",
          "type": "uint256"
        }
      ],
      "stateMutability": "view",
      "type": "function"
    },
    {
      "inputs": [
        {
          "internalType": "address",
          "name": "",
          "type": "address"
        },
        {
          "internalType": "address",
          "name": "",
          "type": "address"
        }
      ],
      "name": "allowance",
      "outputs": [
        {
          "internalType": "uint256",
          "name": "",
          "type": "uint256"
        }
      ],
      "stateMutability": "view",
      "type": "function"
    },
    {
      "inputs": [
        {
          "internalType": "address",
          "name": "_spender",
          "type": "address"
        },
        {
          "internalType": "uint256",
          "name": "_value",
          "type": "uint256"
        }
      ],
      "name": "approve",
      "outputs": [
        {
          "internalType": "bool",
          "name": "",
          "type": "bool"
        }
      ],
      "stateMutability": "nonpayable",
      "type": "function"
    },
    {
      "inputs": [
        {
          "internalType": "address",
          "name": "",
          "type": "address"
        }
      ],
      "name": "balanceOf",
      "outputs": [
        {
          "internalType": "uint256",
          "name": "",
          "type": "uint256"
        }
      ],
      "stateMutability": "view",
      "type": "function"
    },
    {
      "inputs": [],
      "name": "getTokenHolder",
      "outputs": [
        {
          "internalType": "address[]",
          "name": "",
          "type": "address[]"
        }
      ],
      "stateMutability": "view",
      "type": "function"
    },
    {
      "inputs": [
        {
          "internalType": "address",
          "name": "_address",
          "type": "address"
        }
      ],
      "name": "getTokenHolderData",
      "outputs": [
        {
          "internalType": "uint256",
          "name": "",
          "type": "uint256"
        },
        {
          "internalType": "address",
          "name": "",
          "type": "address"
        },
        {
          "internalType": "address",
          "name": "",
          "type": "address"
        },
        {
          "internalType": "uint256",
          "name": "",
          "type": "uint256"
        },
        {
          "internalType": "bool",
          "name": "",
          "type": "bool"
        }
      ],
      "stateMutability": "view",
      "type": "function"
    },
    {
      "inputs": [
        {
          "internalType": "uint256",
          "name": "",
          "type": "uint256"
        }
      ],
      "name": "holderToken",
      "outputs": [
        {
          "internalType": "address",
          "name": "",
          "type": "address"
        }
      ],
      "stateMutability": "view",
      "type": "function"
    },
    {
      "inputs": [],
      "name": "initialSupply",
      "outputs": [
        {
          "internalType": "uint256",
          "name": "",
          "type": "uint256"
        }
      ],
      "stateMutability": "view",
      "type": "function"
    },
    {
      "inputs": [],
      "name": "name",
      "outputs": [
        {
          "internalType": "string",
          "name": "",
          "type": "string"
        }
      ],
      "stateMutability": "view",
      "type": "function"
    },
    {
      "inputs": [],
      "name": "ownerOfContract",
      "outputs": [
        {
          "internalType": "address",
          "name": "",
          "type": "address"
        }
      ],
      "stateMutability": "view",
      "type": "function"
    },
    {
      "inputs": [],
      "name": "standard",
      "outputs": [
        {
          "internalType": "string",
          "name": "",
          "type": "string"
        }
      ],
      "stateMutability": "view",
      "type": "function"
    },
    {
      "inputs": [],
      "name": "symbol",
      "outputs": [
        {
          "internalType": "string",
          "name": "",
          "type": "string"
        }
      ],
      "stateMutability": "view",
      "type": "function"
    },
    {
      "inputs": [
        {
          "internalType": "address",
          "name": "",
          "type": "address"
        }
      ],
      "name": "tokenHolderInfos",
      "outputs": [
        {
          "internalType": "uint256",
          "name": "_tokenId",
          "type": "uint256"
        },
        {
          "internalType": "address",
          "name": "_from",
          "type": "address"
        },
        {
          "internalType": "address",
          "name": "_to",
          "type": "address"
        },
        {
          "internalType": "uint256",
          "name": "_totalToken",
          "type": "uint256"
        },
        {
          "internalType": "bool",
          "name": "_tokenHolder",
          "type": "bool"
        }
      ],
      "stateMutability": "view",
      "type": "function"
    },
    {
      "inputs": [],
      "name": "totalSupply",
      "outputs": [
        {
          "internalType": "uint256",
          "name": "",
          "type": "uint256"
        }
      ],
      "stateMutability": "view",
      "type": "function"
    },
    {
      "inputs": [
        {
          "internalType": "address",
          "name": "_to",
          "type": "address"
        },
        {
          "internalType": "uint256",
          "name": "_value",
          "type": "uint256"
        }
      ],
      "name": "transfer",
      "outputs": [
        {
          "internalType": "bool",
          "name": "",
          "type": "bool"
        }
      ],
      "stateMutability": "nonpayable",
      "type": "function"
    },
    {
      "inputs": [
        {
          "internalType": "address",
          "name": "_from",
          "type": "address"
        },
        {
          "internalType": "address",
          "name": "_to",
          "type": "address"
        },
        {
          "internalType": "uint256",
          "name": "_value",
          "type": "uint256"
        }
      ],
      "name": "transferFrom",
      "outputs": [
        {
          "internalType": "bool",
          "name": "",
          "type": "bool"
        }
      ],
      "stateMutability": "nonpayable",
      "type": "function"
    }
  ],
  "bytecode": "0x60c060405234801561001057600080fd5b503360a08190526a084595161401484a00000060808190526000918252600360205260409091205560805160a051610a1261005d60003960006102460152600061016a0152610a126000f3fe608060405234801561001057600080fd5b50600436106101005760003560e01c806370a0823111610097578063a9059cbb11610066578063a9059cbb14610353578063ba8e355714610366578063bc4530e71461037b578063dd62ed3e1461038457600080fd5b806370a08231146102ad578063760b06c5146102cd57806382b68263146102e057806395d89b411461033057600080fd5b806329cc66ed116100d357806329cc66ed146101ad578063378dc3dc1461022f578063468229ae146102415780635a3b7e421461028057600080fd5b806306fdde0314610105578063095ea7b31461014257806318160ddd1461016557806323b872dd1461019a575b600080fd5b61012c604051806040016040528060088152602001674275636861696e7360c01b81525081565b60405161013991906107fb565b60405180910390f35b610155610150366004610866565b6103af565b6040519015158152602001610139565b61018c7f000000000000000000000000000000000000000000000000000000000000000081565b604051908152602001610139565b6101556101a8366004610890565b61041c565b6101f96101bb3660046108cc565b60026020819052600091825260409091208054600182015492820154600383015460049093015491936001600160a01b039081169391169160ff1685565b604080519586526001600160a01b039485166020870152929093169184019190915260608301521515608082015260a001610139565b61018c6a084595161401484a00000081565b6102687f000000000000000000000000000000000000000000000000000000000000000081565b6040516001600160a01b039091168152602001610139565b61012c6040518060400160405280600e81526020016d6275636861696e7320762e302e3160901b81525081565b61018c6102bb3660046108cc565b60036020526000908152604090205481565b6102686102db3660046108ee565b6105de565b6101f96102ee3660046108cc565b6001600160a01b03908116600090815260026020819052604090912080546001820154928201546003830154600490930154919593851694169260ff90911690565b61012c604051806040016040528060048152602001634255435360e01b81525081565b610155610361366004610866565b610608565b61036e610783565b6040516101399190610907565b61018c60005481565b61018c610392366004610954565b600460209081526000928352604080842090915290825290205481565b3360008181526004602090815260408083206001600160a01b038716808552925280832085905551919290917f8c5be1e5ebec7d5bd14f71427d1e84f3dd0314c0f7b2291e5b200ac8c7c3b9259061040a9086815260200190565b60405180910390a35060015b92915050565b6001600160a01b0383166000908152600360205260408120548211156104805760405162461bcd60e51b8152602060048201526014602482015273496e73756666696369656e742062616c616e636560601b60448201526064015b60405180910390fd5b6001600160a01b03841660009081526004602090815260408083203384529091529020548211156104f35760405162461bcd60e51b815260206004820152601760248201527f496e73756666696369656e636520416c6c6f77616e63650000000000000000006044820152606401610477565b6001600160a01b0384166000908152600360205260408120805484929061051b90849061099d565b90915550506001600160a01b038316600090815260036020526040812080548492906105489084906109b0565b90915550506001600160a01b03841660009081526004602090815260408083203384529091528120805484929061058090849061099d565b92505081905550826001600160a01b0316846001600160a01b03167fddf252ad1be2c89b69c2b068fc378daa952ba7f163c4a11628f55a4df523b3ef846040516105cc91815260200190565b60405180910390a35060019392505050565b600181815481106105ee57600080fd5b6000918252602090912001546001600160a01b0316905081565b3360009081526003602052604081205482111561065e5760405162461bcd60e51b8152602060048201526014602482015273496e73756666696369656e742062616c616e636560601b6044820152606401610477565b6106666107e5565b336000908152600360205260408120805484929061068590849061099d565b90915550506001600160a01b038316600090815260036020526040812080548492906106b29084906109b0565b90915550506001600160a01b038316600081815260026020818152604080842060018082018054336001600160a01b031991821681179092559583018054871689179055600383018a90558654835560048301805460ff19168317905581548083018355919096527fb10e2d527612073b26eecdfd717e6a320cf44b4afac2b0732d9fcbe2b7fa0cf6018054909416861790935551868152919392917fddf252ad1be2c89b69c2b068fc378daa952ba7f163c4a11628f55a4df523b3ef910160405180910390a35060019392505050565b606060018054806020026020016040519081016040528092919081815260200182805480156107db57602002820191906000526020600020905b81546001600160a01b031681526001909101906020018083116107bd575b5050505050905090565b6000805490806107f4836109c3565b9190505550565b60006020808352835180602085015260005b818110156108295785810183015185820160400152820161080d565b506000604082860101526040601f19601f8301168501019250505092915050565b80356001600160a01b038116811461086157600080fd5b919050565b6000806040838503121561087957600080fd5b6108828361084a565b946020939093013593505050565b6000806000606084860312156108a557600080fd5b6108ae8461084a565b92506108bc6020850161084a565b9150604084013590509250925092565b6000602082840312156108de57600080fd5b6108e78261084a565b9392505050565b60006020828403121561090057600080fd5b5035919050565b6020808252825182820181905260009190848201906040850190845b818110156109485783516001600160a01b031683529284019291840191600101610923565b50909695505050505050565b6000806040838503121561096757600080fd5b6109708361084a565b915061097e6020840161084a565b90509250929050565b634e487b7160e01b600052601160045260246000fd5b8181038181111561041657610416610987565b8082018082111561041657610416610987565b6000600182016109d5576109d5610987565b506001019056fea2646970667358221220f02c61a3533da055feed0c2f8eab2b019d5a4a08a9a27adc97908df8eeaefda064736f6c63430008180033",
  "linkReferences": {},
  "deployedLinkReferences": {}
}